{
  "contractName": "trabicCrowdSale",
  "abi": [
    {
      "constant": true,
      "inputs": [],
      "name": "hasClosed",
      "outputs": [
        {
          "name": "",
          "type": "bool"
        }
      ],
      "payable": false,
      "stateMutability": "view",
      "type": "function"
    },
    {
      "constant": true,
      "inputs": [],
      "name": "rate",
      "outputs": [
        {
          "name": "",
          "type": "uint256"
        }
      ],
      "payable": false,
      "stateMutability": "view",
      "type": "function"
    },
    {
      "constant": true,
      "inputs": [],
      "name": "cap",
      "outputs": [
        {
          "name": "",
          "type": "uint256"
        }
      ],
      "payable": false,
      "stateMutability": "view",
      "type": "function"
    },
    {
      "constant": true,
      "inputs": [],
      "name": "goal",
      "outputs": [
        {
          "name": "",
          "type": "uint256"
        }
      ],
      "payable": false,
      "stateMutability": "view",
      "type": "function"
    },
    {
      "constant": true,
      "inputs": [],
      "name": "weiRaised",
      "outputs": [
        {
          "name": "",
          "type": "uint256"
        }
      ],
      "payable": false,
      "stateMutability": "view",
      "type": "function"
    },
    {
      "constant": true,
      "inputs": [
        {
          "name": "",
          "type": "address"
        }
      ],
      "name": "contributions",
      "outputs": [
        {
          "name": "",
          "type": "uint256"
        }
      ],
      "payable": false,
      "stateMutability": "view",
      "type": "function"
    },
    {
      "constant": true,
      "inputs": [],
      "name": "tokenSalePercentage",
      "outputs": [
        {
          "name": "",
          "type": "uint256"
        }
      ],
      "payable": false,
      "stateMutability": "view",
      "type": "function"
    },
    {
      "constant": true,
      "inputs": [],
      "name": "closingTime",
      "outputs": [
        {
          "name": "",
          "type": "uint256"
        }
      ],
      "payable": false,
      "stateMutability": "view",
      "type": "function"
    },
    {
      "constant": false,
      "inputs": [],
      "name": "finalize",
      "outputs": [],
      "payable": false,
      "stateMutability": "nonpayable",
      "type": "function"
    },
    {
      "constant": true,
      "inputs": [],
      "name": "capReached",
      "outputs": [
        {
          "name": "",
          "type": "bool"
        }
      ],
      "payable": false,
      "stateMutability": "view",
      "type": "function"
    },
    {
      "constant": true,
      "inputs": [],
      "name": "wallet",
      "outputs": [
        {
          "name": "",
          "type": "address"
        }
      ],
      "payable": false,
      "stateMutability": "view",
      "type": "function"
    },
    {
      "constant": true,
      "inputs": [],
      "name": "foundersPercentage",
      "outputs": [
        {
          "name": "",
          "type": "uint256"
        }
      ],
      "payable": false,
      "stateMutability": "view",
      "type": "function"
    },
    {
      "constant": false,
      "inputs": [],
      "name": "renounceOwnership",
      "outputs": [],
      "payable": false,
      "stateMutability": "nonpayable",
      "type": "function"
    },
    {
      "constant": true,
      "inputs": [],
      "name": "goalReached",
      "outputs": [
        {
          "name": "",
          "type": "bool"
        }
      ],
      "payable": false,
      "stateMutability": "view",
      "type": "function"
    },
    {
      "constant": true,
      "inputs": [],
      "name": "foundationPercentage",
      "outputs": [
        {
          "name": "",
          "type": "uint256"
        }
      ],
      "payable": false,
      "stateMutability": "view",
      "type": "function"
    },
    {
      "constant": false,
      "inputs": [
        {
          "name": "_beneficiary",
          "type": "address"
        }
      ],
      "name": "removeFromWhitelist",
      "outputs": [],
      "payable": false,
      "stateMutability": "nonpayable",
      "type": "function"
    },
    {
      "constant": false,
      "inputs": [
        {
          "name": "_beneficiaries",
          "type": "address[]"
        }
      ],
      "name": "addManyToWhitelist",
      "outputs": [],
      "payable": false,
      "stateMutability": "nonpayable",
      "type": "function"
    },
    {
      "constant": true,
      "inputs": [],
      "name": "isFinalized",
      "outputs": [
        {
          "name": "",
          "type": "bool"
        }
      ],
      "payable": false,
      "stateMutability": "view",
      "type": "function"
    },
    {
      "constant": true,
      "inputs": [],
      "name": "owner",
      "outputs": [
        {
          "name": "",
          "type": "address"
        }
      ],
      "payable": false,
      "stateMutability": "view",
      "type": "function"
    },
    {
      "constant": true,
      "inputs": [
        {
          "name": "",
          "type": "address"
        }
      ],
      "name": "whitelist",
      "outputs": [
        {
          "name": "",
          "type": "bool"
        }
      ],
      "payable": false,
      "stateMutability": "view",
      "type": "function"
    },
    {
      "constant": true,
      "inputs": [],
      "name": "investorMinCap",
      "outputs": [
        {
          "name": "",
          "type": "uint256"
        }
      ],
      "payable": false,
      "stateMutability": "view",
      "type": "function"
    },
    {
      "constant": false,
      "inputs": [],
      "name": "claimRefund",
      "outputs": [],
      "payable": false,
      "stateMutability": "nonpayable",
      "type": "function"
    },
    {
      "constant": true,
      "inputs": [],
      "name": "openingTime",
      "outputs": [
        {
          "name": "",
          "type": "uint256"
        }
      ],
      "payable": false,
      "stateMutability": "view",
      "type": "function"
    },
    {
      "constant": true,
      "inputs": [
        {
          "name": "_beneficiary",
          "type": "address"
        }
      ],
      "name": "getUserContribution",
      "outputs": [
        {
          "name": "",
          "type": "uint256"
        }
      ],
      "payable": false,
      "stateMutability": "view",
      "type": "function"
    },
    {
      "constant": true,
      "inputs": [],
      "name": "stage",
      "outputs": [
        {
          "name": "",
          "type": "uint8"
        }
      ],
      "payable": false,
      "stateMutability": "view",
      "type": "function"
    },
    {
      "constant": false,
      "inputs": [
        {
          "name": "_beneficiary",
          "type": "address"
        }
      ],
      "name": "addToWhitelist",
      "outputs": [],
      "payable": false,
      "stateMutability": "nonpayable",
      "type": "function"
    },
    {
      "constant": false,
      "inputs": [
        {
          "name": "_beneficiary",
          "type": "address"
        }
      ],
      "name": "buyTokens",
      "outputs": [],
      "payable": true,
      "stateMutability": "payable",
      "type": "function"
    },
    {
      "constant": true,
      "inputs": [],
      "name": "investorHardCap",
      "outputs": [
        {
          "name": "",
          "type": "uint256"
        }
      ],
      "payable": false,
      "stateMutability": "view",
      "type": "function"
    },
    {
      "constant": false,
      "inputs": [
        {
          "name": "_newOwner",
          "type": "address"
        }
      ],
      "name": "transferOwnership",
      "outputs": [],
      "payable": false,
      "stateMutability": "nonpayable",
      "type": "function"
    },
    {
      "constant": true,
      "inputs": [],
      "name": "partnersPercentage",
      "outputs": [
        {
          "name": "",
          "type": "uint256"
        }
      ],
      "payable": false,
      "stateMutability": "view",
      "type": "function"
    },
    {
      "constant": true,
      "inputs": [],
      "name": "vault",
      "outputs": [
        {
          "name": "",
          "type": "address"
        }
      ],
      "payable": false,
      "stateMutability": "view",
      "type": "function"
    },
    {
      "constant": true,
      "inputs": [],
      "name": "token",
      "outputs": [
        {
          "name": "",
          "type": "address"
        }
      ],
      "payable": false,
      "stateMutability": "view",
      "type": "function"
    },
    {
      "inputs": [
        {
          "name": "_rate",
          "type": "uint256"
        },
        {
          "name": "_wallet",
          "type": "address"
        },
        {
          "name": "_token",
          "type": "address"
        },
        {
          "name": "_cap",
          "type": "uint256"
        },
        {
          "name": "openingTime",
          "type": "uint256"
        },
        {
          "name": "closingTime",
          "type": "uint256"
        },
        {
          "name": "_goal",
          "type": "uint256"
        }
      ],
      "payable": false,
      "stateMutability": "nonpayable",
      "type": "constructor"
    },
    {
      "payable": true,
      "stateMutability": "payable",
      "type": "fallback"
    },
    {
      "anonymous": false,
      "inputs": [],
      "name": "Finalized",
      "type": "event"
    },
    {
      "anonymous": false,
      "inputs": [
        {
          "indexed": true,
          "name": "previousOwner",
          "type": "address"
        }
      ],
      "name": "OwnershipRenounced",
      "type": "event"
    },
    {
      "anonymous": false,
      "inputs": [
        {
          "indexed": true,
          "name": "previousOwner",
          "type": "address"
        },
        {
          "indexed": true,
          "name": "newOwner",
          "type": "address"
        }
      ],
      "name": "OwnershipTransferred",
      "type": "event"
    },
    {
      "anonymous": false,
      "inputs": [
        {
          "indexed": true,
          "name": "purchaser",
          "type": "address"
        },
        {
          "indexed": true,
          "name": "beneficiary",
          "type": "address"
        },
        {
          "indexed": false,
          "name": "value",
          "type": "uint256"
        },
        {
          "indexed": false,
          "name": "amount",
          "type": "uint256"
        }
      ],
      "name": "TokenPurchase",
      "type": "event"
    },
    {
      "constant": false,
      "inputs": [
        {
          "name": "_stage",
          "type": "uint256"
        }
      ],
      "name": "setCrowdSaleStage",
      "outputs": [],
      "payable": false,
      "stateMutability": "nonpayable",
      "type": "function"
    }
  ],
  "bytecode": "0x608060405266071afd498d00006003556802b5e3af16b18800006004556000600c60006101000a81548160ff0219169083151502179055506046600f55600a601055600a601155600a6012556000601360006101000a81548160ff021916908360018111156200006b57fe5b02179055503480156200007d57600080fd5b5060405160e08062002a6183398101806040528101908080519060200190929190805190602001909291908051906020019092919080519060200190929190805190602001909291908051906020019092919080519060200190929190505050808383868a8a8a600083111515620000f457600080fd5b600073ffffffffffffffffffffffffffffffffffffffff168273ffffffffffffffffffffffffffffffffffffffff16141515156200013157600080fd5b600073ffffffffffffffffffffffffffffffffffffffff168173ffffffffffffffffffffffffffffffffffffffff16141515156200016e57600080fd5b8260028190555081600160006101000a81548173ffffffffffffffffffffffffffffffffffffffff021916908373ffffffffffffffffffffffffffffffffffffffff160217905550806000806101000a81548173ffffffffffffffffffffffffffffffffffffffff021916908373ffffffffffffffffffffffffffffffffffffffff1602179055505050506000811115156200020957600080fd5b80600781905550504282101515156200022157600080fd5b8181101515156200023157600080fd5b8160088190555080600981905550505033600a60006101000a81548173ffffffffffffffffffffffffffffffffffffffff021916908373ffffffffffffffffffffffffffffffffffffffff1602179055506000811115156200029257600080fd5b600160009054906101000a900473ffffffffffffffffffffffffffffffffffffffff16620002bf620003e0565b808273ffffffffffffffffffffffffffffffffffffffff1673ffffffffffffffffffffffffffffffffffffffff168152602001915050604051809103906000f08015801562000312573d6000803e3d6000fd5b50600e60006101000a81548173ffffffffffffffffffffffffffffffffffffffff021916908373ffffffffffffffffffffffffffffffffffffffff16021790555080600d81905550508381101515620003d3576040517f08c379a000000000000000000000000000000000000000000000000000000000815260040180806020018281038252601d8152602001807f43726f776446756e64696e67207265616368656420486172642043617000000081525060200191505060405180910390fd5b50505050505050620003f1565b604051610beb8062001e7683390190565b611a7580620004016000396000f3006080604052600436106101a1576000357c0100000000000000000000000000000000000000000000000000000000900463ffffffff1680631515bc2b146101ac5780632a86e726146101db5780632c4e722e14610208578063355274ea14610233578063401938831461025e5780634042b66f1461028957806342e94c90146102b457806346daa2421461030b5780634b6753bc146103365780634bb278f3146103615780634f93594514610378578063521eb273146103a757806353c08ea2146103fe578063715018a6146104295780637d3d652214610440578063864329e31461046f5780638ab1d6811461049a5780638c10671c146104dd5780638d4e4083146105185780638da5cb5b146105475780639b19251a1461059e578063b25d7f54146105f9578063b5545a3c14610624578063b7a8807c1461063b578063bb8b2b4714610666578063c040e6b8146106bd578063e43252d7146106f6578063ec8ac4d814610739578063ed5db8741461076f578063f2fde38b1461079a578063f45b9bed146107dd578063fbfa77cf14610808578063fc0c546a1461085f575b6101aa336108b6565b005b3480156101b857600080fd5b506101c161098e565b604051808215151515815260200191505060405180910390f35b3480156101e757600080fd5b506102066004803603810190808035906020019092919050505061099a565b005b34801561021457600080fd5b5061021d610ae2565b6040518082815260200191505060405180910390f35b34801561023f57600080fd5b50610248610ae8565b6040518082815260200191505060405180910390f35b34801561026a57600080fd5b50610273610aee565b6040518082815260200191505060405180910390f35b34801561029557600080fd5b5061029e610af4565b6040518082815260200191505060405180910390f35b3480156102c057600080fd5b506102f5600480360381019080803573ffffffffffffffffffffffffffffffffffffffff169060200190929190505050610afa565b6040518082815260200191505060405180910390f35b34801561031757600080fd5b50610320610b12565b6040518082815260200191505060405180910390f35b34801561034257600080fd5b5061034b610b18565b6040518082815260200191505060405180910390f35b34801561036d57600080fd5b50610376610b1e565b005b34801561038457600080fd5b5061038d610bfa565b604051808215151515815260200191505060405180910390f35b3480156103b357600080fd5b506103bc610c09565b604051808273ffffffffffffffffffffffffffffffffffffffff1673ffffffffffffffffffffffffffffffffffffffff16815260200191505060405180910390f35b34801561040a57600080fd5b50610413610c2f565b6040518082815260200191505060405180910390f35b34801561043557600080fd5b5061043e610c35565b005b34801561044c57600080fd5b50610455610d3a565b604051808215151515815260200191505060405180910390f35b34801561047b57600080fd5b50610484610d49565b6040518082815260200191505060405180910390f35b3480156104a657600080fd5b506104db600480360381019080803573ffffffffffffffffffffffffffffffffffffffff169060200190929190505050610d4f565b005b3480156104e957600080fd5b50610516600480360381019080803590602001908201803590602001919091929391929390505050610e06565b005b34801561052457600080fd5b5061052d610f08565b604051808215151515815260200191505060405180910390f35b34801561055357600080fd5b5061055c610f1b565b604051808273ffffffffffffffffffffffffffffffffffffffff1673ffffffffffffffffffffffffffffffffffffffff16815260200191505060405180910390f35b3480156105aa57600080fd5b506105df600480360381019080803573ffffffffffffffffffffffffffffffffffffffff169060200190929190505050610f41565b604051808215151515815260200191505060405180910390f35b34801561060557600080fd5b5061060e610f61565b6040518082815260200191505060405180910390f35b34801561063057600080fd5b50610639610f67565b005b34801561064757600080fd5b5061065061106d565b6040518082815260200191505060405180910390f35b34801561067257600080fd5b506106a7600480360381019080803573ffffffffffffffffffffffffffffffffffffffff169060200190929190505050611073565b6040518082815260200191505060405180910390f35b3480156106c957600080fd5b506106d26110bc565b604051808260018111156106e257fe5b60ff16815260200191505060405180910390f35b34801561070257600080fd5b50610737600480360381019080803573ffffffffffffffffffffffffffffffffffffffff1690602001909291905050506110cf565b005b61076d600480360381019080803573ffffffffffffffffffffffffffffffffffffffff1690602001909291905050506108b6565b005b34801561077b57600080fd5b50610784611186565b6040518082815260200191505060405180910390f35b3480156107a657600080fd5b506107db600480360381019080803573ffffffffffffffffffffffffffffffffffffffff16906020019092919050505061118c565b005b3480156107e957600080fd5b506107f26111f4565b6040518082815260200191505060405180910390f35b34801561081457600080fd5b5061081d6111fa565b604051808273ffffffffffffffffffffffffffffffffffffffff1673ffffffffffffffffffffffffffffffffffffffff16815260200191505060405180910390f35b34801561086b57600080fd5b50610874611220565b604051808273ffffffffffffffffffffffffffffffffffffffff1673ffffffffffffffffffffffffffffffffffffffff16815260200191505060405180910390f35b6000803491506108c68383611245565b6108d083836112ad565b6108d9826113ff565b90506108f08260065461141d90919063ffffffff16565b6006819055506109008382611439565b8273ffffffffffffffffffffffffffffffffffffffff163373ffffffffffffffffffffffffffffffffffffffff167f623b3804fa71d67900d064613da8f94b9617215ee90799290593e1745087ad188484604051808381526020018281526020019250505060405180910390a36109778383611447565b61097f61144b565b6109898383611520565b505050565b60006009544211905090565b600a60009054906101000a900473ffffffffffffffffffffffffffffffffffffffff1673ffffffffffffffffffffffffffffffffffffffff163373ffffffffffffffffffffffffffffffffffffffff161415156109f657600080fd5b8060006001811115610a0457fe5b1415610a33576000601360006101000a81548160ff02191690836001811115610a2957fe5b0217905550610a6c565b80600180811115610a4057fe5b1415610a6b576001601360006101000a81548160ff02191690836001811115610a6557fe5b02179055505b5b60006001811115610a7957fe5b601360009054906101000a900460ff166001811115610a9457fe5b1415610aa8576101f4600281905550610adf565b600180811115610ab457fe5b601360009054906101000a900460ff166001811115610acf57fe5b1415610ade5760fa6002819055505b5b50565b60025481565b60075481565b600d5481565b60065481565b60056020528060005260406000206000915090505481565b600f5481565b60095481565b600a60009054906101000a900473ffffffffffffffffffffffffffffffffffffffff1673ffffffffffffffffffffffffffffffffffffffff163373ffffffffffffffffffffffffffffffffffffffff16141515610b7a57600080fd5b600c60009054906101000a900460ff16151515610b9657600080fd5b610b9e61098e565b1515610ba957600080fd5b610bb1611524565b7f6823b073d48d6e3a7d385eeb601452d680e74bb46afe3255a7d778f3a9b1768160405160405180910390a16001600c60006101000a81548160ff021916908315150217905550565b60006007546006541015905090565b600160009054906101000a900473ffffffffffffffffffffffffffffffffffffffff1681565b60105481565b600a60009054906101000a900473ffffffffffffffffffffffffffffffffffffffff1673ffffffffffffffffffffffffffffffffffffffff163373ffffffffffffffffffffffffffffffffffffffff16141515610c9157600080fd5b600a60009054906101000a900473ffffffffffffffffffffffffffffffffffffffff1673ffffffffffffffffffffffffffffffffffffffff167ff8df31144d9c2f0f6b59d69b8b98abd5459d07f2742c4df920b25aae33c6482060405160405180910390a26000600a60006101000a81548173ffffffffffffffffffffffffffffffffffffffff021916908373ffffffffffffffffffffffffffffffffffffffff160217905550565b6000600d546006541015905090565b60115481565b600a60009054906101000a900473ffffffffffffffffffffffffffffffffffffffff1673ffffffffffffffffffffffffffffffffffffffff163373ffffffffffffffffffffffffffffffffffffffff16141515610dab57600080fd5b6000600b60008373ffffffffffffffffffffffffffffffffffffffff1673ffffffffffffffffffffffffffffffffffffffff16815260200190815260200160002060006101000a81548160ff02191690831515021790555050565b6000600a60009054906101000a900473ffffffffffffffffffffffffffffffffffffffff1673ffffffffffffffffffffffffffffffffffffffff163373ffffffffffffffffffffffffffffffffffffffff16141515610e6457600080fd5b600090505b82829050811015610f03576001600b60008585858181101515610e8857fe5b9050602002013573ffffffffffffffffffffffffffffffffffffffff1673ffffffffffffffffffffffffffffffffffffffff1673ffffffffffffffffffffffffffffffffffffffff16815260200190815260200160002060006101000a81548160ff0219169083151502179055508080600101915050610e69565b505050565b600c60009054906101000a900460ff1681565b600a60009054906101000a900473ffffffffffffffffffffffffffffffffffffffff1681565b600b6020528060005260406000206000915054906101000a900460ff1681565b60035481565b600c60009054906101000a900460ff161515610f8257600080fd5b610f8a610d3a565b151515610f9657600080fd5b600e60009054906101000a900473ffffffffffffffffffffffffffffffffffffffff1673ffffffffffffffffffffffffffffffffffffffff1663fa89401a336040518263ffffffff167c0100000000000000000000000000000000000000000000000000000000028152600401808273ffffffffffffffffffffffffffffffffffffffff1673ffffffffffffffffffffffffffffffffffffffff168152602001915050600060405180830381600087803b15801561105357600080fd5b505af1158015611067573d6000803e3d6000fd5b50505050565b60085481565b6000600560008373ffffffffffffffffffffffffffffffffffffffff1673ffffffffffffffffffffffffffffffffffffffff168152602001908152602001600020549050919050565b601360009054906101000a900460ff1681565b600a60009054906101000a900473ffffffffffffffffffffffffffffffffffffffff1673ffffffffffffffffffffffffffffffffffffffff163373ffffffffffffffffffffffffffffffffffffffff1614151561112b57600080fd5b6001600b60008373ffffffffffffffffffffffffffffffffffffffff1673ffffffffffffffffffffffffffffffffffffffff16815260200190815260200160002060006101000a81548160ff02191690831515021790555050565b60045481565b600a60009054906101000a900473ffffffffffffffffffffffffffffffffffffffff1673ffffffffffffffffffffffffffffffffffffffff163373ffffffffffffffffffffffffffffffffffffffff161415156111e857600080fd5b6111f18161167d565b50565b60125481565b600e60009054906101000a900473ffffffffffffffffffffffffffffffffffffffff1681565b6000809054906101000a900473ffffffffffffffffffffffffffffffffffffffff1681565b81600b60008273ffffffffffffffffffffffffffffffffffffffff1673ffffffffffffffffffffffffffffffffffffffff16815260200190815260200160002060009054906101000a900460ff16151561129e57600080fd5b6112a88383611779565b505050565b600080600560008573ffffffffffffffffffffffffffffffffffffffff1673ffffffffffffffffffffffffffffffffffffffff168152602001908152602001600020549150611305838361141d90919063ffffffff16565b9050600354811015801561131b57506004548111155b15156113b5576040517f08c379a00000000000000000000000000000000000000000000000000000000081526004018080602001828103825260378152602001807f74686973207472616e73656374696f6e206f6b206e6f7720206265636175736581526020017f20697420697320696e206265747765656e2072616e676500000000000000000081525060400191505060405180910390fd5b80600560008673ffffffffffffffffffffffffffffffffffffffff1673ffffffffffffffffffffffffffffffffffffffff1681526020019081526020016000208190555050505050565b6000611416600254836117a690919063ffffffff16565b9050919050565b6000818301905082811015151561143057fe5b80905092915050565b61144382826117de565b5050565b5050565b6000600181111561145857fe5b601360009054906101000a900460ff16600181111561147357fe5b14156114e757600160009054906101000a900473ffffffffffffffffffffffffffffffffffffffff1673ffffffffffffffffffffffffffffffffffffffff166108fc349081150290604051600060405180830381858888f193505050501580156114e1573d6000803e3d6000fd5b5061151e565b6001808111156114f357fe5b601360009054906101000a900460ff16600181111561150e57fe5b141561151d5761151c6118ec565b5b5b565b5050565b61152c610d3a565b156115d457600e60009054906101000a900473ffffffffffffffffffffffffffffffffffffffff1673ffffffffffffffffffffffffffffffffffffffff166343d726d66040518163ffffffff167c0100000000000000000000000000000000000000000000000000000000028152600401600060405180830381600087803b1580156115b757600080fd5b505af11580156115cb573d6000803e3d6000fd5b50505050611673565b600e60009054906101000a900473ffffffffffffffffffffffffffffffffffffffff1673ffffffffffffffffffffffffffffffffffffffff16638c52dc416040518163ffffffff167c0100000000000000000000000000000000000000000000000000000000028152600401600060405180830381600087803b15801561165a57600080fd5b505af115801561166e573d6000803e3d6000fd5b505050505b61167b6119c4565b565b600073ffffffffffffffffffffffffffffffffffffffff168173ffffffffffffffffffffffffffffffffffffffff16141515156116b957600080fd5b8073ffffffffffffffffffffffffffffffffffffffff16600a60009054906101000a900473ffffffffffffffffffffffffffffffffffffffff1673ffffffffffffffffffffffffffffffffffffffff167f8be0079c531659141344cd1fd0a4f28419497f9722a3daafe3b4186f6b6457e060405160405180910390a380600a60006101000a81548173ffffffffffffffffffffffffffffffffffffffff021916908373ffffffffffffffffffffffffffffffffffffffff16021790555050565b600854421015801561178d57506009544211155b151561179857600080fd5b6117a282826119c6565b5050565b6000808314156117b957600090506117d8565b81830290508183828115156117ca57fe5b041415156117d457fe5b8090505b92915050565b6000809054906101000a900473ffffffffffffffffffffffffffffffffffffffff1673ffffffffffffffffffffffffffffffffffffffff166340c10f1983836040518363ffffffff167c0100000000000000000000000000000000000000000000000000000000028152600401808373ffffffffffffffffffffffffffffffffffffffff1673ffffffffffffffffffffffffffffffffffffffff16815260200182815260200192505050602060405180830381600087803b1580156118a257600080fd5b505af11580156118b6573d6000803e3d6000fd5b505050506040513d60208110156118cc57600080fd5b810190808051906020019092919050505015156118e857600080fd5b5050565b600e60009054906101000a900473ffffffffffffffffffffffffffffffffffffffff1673ffffffffffffffffffffffffffffffffffffffff1663f340fa0134336040518363ffffffff167c0100000000000000000000000000000000000000000000000000000000028152600401808273ffffffffffffffffffffffffffffffffffffffff1673ffffffffffffffffffffffffffffffffffffffff1681526020019150506000604051808303818588803b1580156119a957600080fd5b505af11580156119bd573d6000803e3d6000fd5b5050505050565b565b6119d082826119f9565b6007546119e88260065461141d90919063ffffffff16565b111515156119f557600080fd5b5050565b600073ffffffffffffffffffffffffffffffffffffffff168273ffffffffffffffffffffffffffffffffffffffff1614151515611a3557600080fd5b60008114151515611a4557600080fd5b50505600a165627a7a7230582097376e8782f592d1a00d8ded3a9761a6c8f7012947deeeded4a1e8d3ab26450b0029608060405234801561001057600080fd5b50604051602080610beb83398101806040528101908080519060200190929190505050336000806101000a81548173ffffffffffffffffffffffffffffffffffffffff021916908373ffffffffffffffffffffffffffffffffffffffff160217905550600073ffffffffffffffffffffffffffffffffffffffff168173ffffffffffffffffffffffffffffffffffffffff16141515156100af57600080fd5b80600260006101000a81548173ffffffffffffffffffffffffffffffffffffffff021916908373ffffffffffffffffffffffffffffffffffffffff1602179055506000600260146101000a81548160ff0219169083600281111561010f57fe5b021790555050610ac7806101246000396000f3006080604052600436106100a4576000357c0100000000000000000000000000000000000000000000000000000000900463ffffffff16806343d726d6146100a9578063521eb273146100c0578063715018a6146101175780638c52dc411461012e5780638da5cb5b14610145578063c19d93fb1461019c578063cb13cddb146101d5578063f2fde38b1461022c578063f340fa011461026f578063fa89401a146102a5575b600080fd5b3480156100b557600080fd5b506100be6102e8565b005b3480156100cc57600080fd5b506100d5610448565b604051808273ffffffffffffffffffffffffffffffffffffffff1673ffffffffffffffffffffffffffffffffffffffff16815260200191505060405180910390f35b34801561012357600080fd5b5061012c61046e565b005b34801561013a57600080fd5b50610143610570565b005b34801561015157600080fd5b5061015a610651565b604051808273ffffffffffffffffffffffffffffffffffffffff1673ffffffffffffffffffffffffffffffffffffffff16815260200191505060405180910390f35b3480156101a857600080fd5b506101b1610676565b604051808260028111156101c157fe5b60ff16815260200191505060405180910390f35b3480156101e157600080fd5b50610216600480360381019080803573ffffffffffffffffffffffffffffffffffffffff169060200190929190505050610689565b6040518082815260200191505060405180910390f35b34801561023857600080fd5b5061026d600480360381019080803573ffffffffffffffffffffffffffffffffffffffff1690602001909291905050506106a1565b005b6102a3600480360381019080803573ffffffffffffffffffffffffffffffffffffffff169060200190929190505050610708565b005b3480156102b157600080fd5b506102e6600480360381019080803573ffffffffffffffffffffffffffffffffffffffff16906020019092919050505061082f565b005b6000809054906101000a900473ffffffffffffffffffffffffffffffffffffffff1673ffffffffffffffffffffffffffffffffffffffff163373ffffffffffffffffffffffffffffffffffffffff1614151561034357600080fd5b6000600281111561035057fe5b600260149054906101000a900460ff16600281111561036b57fe5b14151561037757600080fd5b60028060146101000a81548160ff0219169083600281111561039557fe5b02179055507f1cdde67b72a90f19919ac732a437ac2f7a10fc128d28c2a6e525d89ce5cd9d3a60405160405180910390a1600260009054906101000a900473ffffffffffffffffffffffffffffffffffffffff1673ffffffffffffffffffffffffffffffffffffffff166108fc3073ffffffffffffffffffffffffffffffffffffffff16319081150290604051600060405180830381858888f19350505050158015610445573d6000803e3d6000fd5b50565b600260009054906101000a900473ffffffffffffffffffffffffffffffffffffffff1681565b6000809054906101000a900473ffffffffffffffffffffffffffffffffffffffff1673ffffffffffffffffffffffffffffffffffffffff163373ffffffffffffffffffffffffffffffffffffffff161415156104c957600080fd5b6000809054906101000a900473ffffffffffffffffffffffffffffffffffffffff1673ffffffffffffffffffffffffffffffffffffffff167ff8df31144d9c2f0f6b59d69b8b98abd5459d07f2742c4df920b25aae33c6482060405160405180910390a260008060006101000a81548173ffffffffffffffffffffffffffffffffffffffff021916908373ffffffffffffffffffffffffffffffffffffffff160217905550565b6000809054906101000a900473ffffffffffffffffffffffffffffffffffffffff1673ffffffffffffffffffffffffffffffffffffffff163373ffffffffffffffffffffffffffffffffffffffff161415156105cb57600080fd5b600060028111156105d857fe5b600260149054906101000a900460ff1660028111156105f357fe5b1415156105ff57600080fd5b6001600260146101000a81548160ff0219169083600281111561061e57fe5b02179055507f599d8e5a83cffb867d051598c4d70e805d59802d8081c1c7d6dffc5b6aca2b8960405160405180910390a1565b6000809054906101000a900473ffffffffffffffffffffffffffffffffffffffff1681565b600260149054906101000a900460ff1681565b60016020528060005260406000206000915090505481565b6000809054906101000a900473ffffffffffffffffffffffffffffffffffffffff1673ffffffffffffffffffffffffffffffffffffffff163373ffffffffffffffffffffffffffffffffffffffff161415156106fc57600080fd5b61070581610985565b50565b6000809054906101000a900473ffffffffffffffffffffffffffffffffffffffff1673ffffffffffffffffffffffffffffffffffffffff163373ffffffffffffffffffffffffffffffffffffffff1614151561076357600080fd5b6000600281111561077057fe5b600260149054906101000a900460ff16600281111561078b57fe5b14151561079757600080fd5b6107e934600160008473ffffffffffffffffffffffffffffffffffffffff1673ffffffffffffffffffffffffffffffffffffffff16815260200190815260200160002054610a7f90919063ffffffff16565b600160008373ffffffffffffffffffffffffffffffffffffffff1673ffffffffffffffffffffffffffffffffffffffff1681526020019081526020016000208190555050565b60006001600281111561083e57fe5b600260149054906101000a900460ff16600281111561085957fe5b14151561086557600080fd5b600160008373ffffffffffffffffffffffffffffffffffffffff1673ffffffffffffffffffffffffffffffffffffffff1681526020019081526020016000205490506000600160008473ffffffffffffffffffffffffffffffffffffffff1673ffffffffffffffffffffffffffffffffffffffff168152602001908152602001600020819055508173ffffffffffffffffffffffffffffffffffffffff166108fc829081150290604051600060405180830381858888f19350505050158015610932573d6000803e3d6000fd5b508173ffffffffffffffffffffffffffffffffffffffff167fd7dee2702d63ad89917b6a4da9981c90c4d24f8c2bdfd64c604ecae57d8d0651826040518082815260200191505060405180910390a25050565b600073ffffffffffffffffffffffffffffffffffffffff168173ffffffffffffffffffffffffffffffffffffffff16141515156109c157600080fd5b8073ffffffffffffffffffffffffffffffffffffffff166000809054906101000a900473ffffffffffffffffffffffffffffffffffffffff1673ffffffffffffffffffffffffffffffffffffffff167f8be0079c531659141344cd1fd0a4f28419497f9722a3daafe3b4186f6b6457e060405160405180910390a3806000806101000a81548173ffffffffffffffffffffffffffffffffffffffff021916908373ffffffffffffffffffffffffffffffffffffffff16021790555050565b60008183019050828110151515610a9257fe5b809050929150505600a165627a7a72305820d895c0493888222844d230b81b484fd2d1d2dc17a57ce50ada8f45ad276eb2780029",
  "source": "pragma solidity ^0.4.24;\n\n// import \"../node_modules/openzeppelin-solidity/contracts/token/ERC20/ERC20.sol\";\n// import \"../node_modules/openzeppelin-solidity/contracts/token/ERC20/ERC20Pausable.sol\";\n// import \"../node_modules/openzeppelin-solidity/contracts/token/ERC20/ERC20Mintable.sol\";\nimport \"../node_modules/openzeppelin-solidity/contracts/crowdsale/Crowdsale.sol\";\nimport \"../node_modules/openzeppelin-solidity/contracts/crowdsale/emission/MintedCrowdsale.sol\";\nimport \"../node_modules/openzeppelin-solidity/contracts/crowdsale/validation/CappedCrowdsale.sol\";\nimport \"../node_modules/openzeppelin-solidity/contracts/crowdsale/validation/TimedCrowdsale.sol\";\nimport \"../node_modules/openzeppelin-solidity/contracts/crowdsale/validation/WhitelistedCrowdsale.sol\";\nimport \"../node_modules/openzeppelin-solidity/contracts/crowdsale/distribution/RefundableCrowdsale.sol\";\n// import \"../node_modules/openzeppelin-solidity/contracts/ownership/Ownable.sol\";\n\n\ncontract trabicCrowdSale is Crowdsale,MintedCrowdsale , CappedCrowdsale ,TimedCrowdsale , WhitelistedCrowdsale , RefundableCrowdsale\n// Ownable, \n \n\n{\n  //   uint256 public investorMinCap = 2000000000000000; // 0.002 ether\n  // uint256 public investorHardCap = 50000000000000000000;// 2 ether\n  // mapping(address => uint256) public contributions;\n\n  // ICO Stages\n enum CrowdSaleStages { PreICO, ICO}\n\n  // Token Distribution\n  uint256 public tokenSalePercentage   = 70;\n  uint256 public foundersPercentage    = 10;\n  uint256 public foundationPercentage  = 10;\n  uint256 public partnersPercentage    = 10;\n// const  rate;\n  // Default to PreICO stage\n  CrowdSaleStages public stage = CrowdSaleStages.PreICO;\n\n//  // Track investor contributions\n//   uint256 public investorMinCap = 2000000000000000; // 0.002 ether\n//   uint256 public investorHardCap = 50000000000000000000; // 50 ether\n//   mapping(address => uint256) public contributions;\n\n\n// Constructor of CrowdSale Contract\n  function trabicCrowdSale(uint256 _rate, address  _wallet,ERC20 _token,uint _cap,uint256 openingTime, uint256 closingTime, uint256 _goal)\n\n  Crowdsale(_rate,_wallet,_token)\n  CappedCrowdsale(_cap) \n TimedCrowdsale(openingTime , closingTime) \n   RefundableCrowdsale(_goal) \n    public {\n\n    require(_goal < _cap, \"CrowdFunding reached Hard Cap\");\n          }\n\n\n \n\n\n// // Set CrowdSaleStages  only Admin can set\n\nfunction setCrowdSaleStage(uint256 _stage) public onlyOwner{\n\nif( uint(CrowdSaleStages.PreICO)== _stage ){\n  stage = CrowdSaleStages.PreICO;\n}\nelse if(uint(CrowdSaleStages.ICO)== _stage){\n  \n  stage = CrowdSaleStages.ICO;\n}\n\n\nif(stage == CrowdSaleStages.PreICO){\n   rate = 500;\n}\nelse if(stage == CrowdSaleStages.ICO){\n    rate = 250;\n   \n}\n\n}\n\n\n /**\n   * @dev forwards funds to the wallet during the PreICO stage, then the refund vault during ICO stage\n   */\n  function _forwardFunds() internal {\n    if(stage == CrowdSaleStages.PreICO) {\n      wallet.transfer(msg.value);\n    } else if (stage == CrowdSaleStages.ICO) {\n      super._forwardFunds();\n    }\n  }\n\n\n  /**\n   * @dev enables token transfers, called when owner calls finalize()\n  */\n  // function finalization() internal {\n  //   if(goalReached()) {\n  //     ERC20Mintable _mintableToken =  ERC20Mintable(token);\n  //     // Do more stuff....\n  //     _mintableToken.finishMinting();\n  //     // Unpause the token\n  //     ERC20Pausable(token).unpause();\n  //   }\n\n  //   super.finalization();\n  // }\n\n}\n",
  "sourcePath": "/home/admins/Desktop/Tasks/Project/Important/STO-V4/contracts/TrabicCrowdSale.sol",
  "compiler": {
    "name": "solc",
    "version": "0.4.24+commit.e67f0147.Emscripten.clang"
  },
  "schemaVersion": "3.0.11",
  "updatedAt": "2019-09-11T14:10:08.844Z",
  "devdoc": {
    "methods": {
      "addManyToWhitelist(address[])": {
        "details": "Adds list of addresses to whitelist. Not overloaded due to limitations with truffle testing.",
        "params": {
          "_beneficiaries": "Addresses to be added to the whitelist"
        }
      },
      "addToWhitelist(address)": {
        "details": "Adds single address to whitelist.",
        "params": {
          "_beneficiary": "Address to be added to the whitelist"
        }
      },
      "buyTokens(address)": {
        "details": "low level token purchase ***DO NOT OVERRIDE***",
        "params": {
          "_beneficiary": "Address performing the token purchase"
        }
      },
      "capReached()": {
        "details": "Checks whether the cap has been reached.",
        "return": "Whether the cap was reached"
      },
      "claimRefund()": {
        "details": "Investors can claim refunds here if crowdsale is unsuccessful"
      },
      "finalize()": {
        "details": "Must be called after crowdsale ends, to do some extra finalization work. Calls the contract's finalization function."
      },
      "goalReached()": {
        "details": "Checks whether funding goal was reached.",
        "return": "Whether funding goal was reached"
      },
      "hasClosed()": {
        "details": "Checks whether the period in which the crowdsale is open has already elapsed.",
        "return": "Whether crowdsale period has elapsed"
      },
      "removeFromWhitelist(address)": {
        "details": "Removes single address from whitelist.",
        "params": {
          "_beneficiary": "Address to be removed to the whitelist"
        }
      },
      "renounceOwnership()": {
        "details": "Allows the current owner to relinquish control of the contract."
      },
      "transferOwnership(address)": {
        "details": "Allows the current owner to transfer control of the contract to a newOwner.",
        "params": {
          "_newOwner": "The address to transfer ownership to."
        }
      }
    }
  },
  "userdoc": {
    "methods": {}
  }
}